{
  "contractName": "Creature",
  "abi": [
    {
      "inputs": [
        {
          "internalType": "address",
          "name": "_proxyRegistryAddress",
          "type": "address"
        }
      ],
      "stateMutability": "nonpayable",
      "type": "constructor"
    },
    {
      "anonymous": false,
      "inputs": [
        {
          "indexed": true,
          "internalType": "address",
          "name": "owner",
          "type": "address"
        },
        {
          "indexed": true,
          "internalType": "address",
          "name": "approved",
          "type": "address"
        },
        {
          "indexed": true,
          "internalType": "uint256",
          "name": "tokenId",
          "type": "uint256"
        }
      ],
      "name": "Approval",
      "type": "event"
    },
    {
      "anonymous": false,
      "inputs": [
        {
          "indexed": true,
          "internalType": "address",
          "name": "owner",
          "type": "address"
        },
        {
          "indexed": true,
          "internalType": "address",
          "name": "operator",
          "type": "address"
        },
        {
          "indexed": false,
          "internalType": "bool",
          "name": "approved",
          "type": "bool"
        }
      ],
      "name": "ApprovalForAll",
      "type": "event"
    },
    {
      "anonymous": false,
      "inputs": [
        {
          "indexed": false,
          "internalType": "address",
          "name": "userAddress",
          "type": "address"
        },
        {
          "indexed": false,
          "internalType": "address payable",
          "name": "relayerAddress",
          "type": "address"
        },
        {
          "indexed": false,
          "internalType": "bytes",
          "name": "functionSignature",
          "type": "bytes"
        }
      ],
      "name": "MetaTransactionExecuted",
      "type": "event"
    },
    {
      "anonymous": false,
      "inputs": [
        {
          "indexed": true,
          "internalType": "address",
          "name": "previousOwner",
          "type": "address"
        },
        {
          "indexed": true,
          "internalType": "address",
          "name": "newOwner",
          "type": "address"
        }
      ],
      "name": "OwnershipTransferred",
      "type": "event"
    },
    {
      "anonymous": false,
      "inputs": [
        {
          "indexed": true,
          "internalType": "address",
          "name": "from",
          "type": "address"
        },
        {
          "indexed": true,
          "internalType": "address",
          "name": "to",
          "type": "address"
        },
        {
          "indexed": true,
          "internalType": "uint256",
          "name": "tokenId",
          "type": "uint256"
        }
      ],
      "name": "Transfer",
      "type": "event"
    },
    {
      "inputs": [],
      "name": "ERC712_VERSION",
      "outputs": [
        {
          "internalType": "string",
          "name": "",
          "type": "string"
        }
      ],
      "stateMutability": "view",
      "type": "function",
      "constant": true
    },
    {
      "inputs": [
        {
          "internalType": "address",
          "name": "to",
          "type": "address"
        },
        {
          "internalType": "uint256",
          "name": "tokenId",
          "type": "uint256"
        }
      ],
      "name": "approve",
      "outputs": [],
      "stateMutability": "nonpayable",
      "type": "function"
    },
    {
      "inputs": [
        {
          "internalType": "address",
          "name": "owner",
          "type": "address"
        }
      ],
      "name": "balanceOf",
      "outputs": [
        {
          "internalType": "uint256",
          "name": "",
          "type": "uint256"
        }
      ],
      "stateMutability": "view",
      "type": "function",
      "constant": true
    },
    {
      "inputs": [
        {
          "internalType": "address",
          "name": "userAddress",
          "type": "address"
        },
        {
          "internalType": "bytes",
          "name": "functionSignature",
          "type": "bytes"
        },
        {
          "internalType": "bytes32",
          "name": "sigR",
          "type": "bytes32"
        },
        {
          "internalType": "bytes32",
          "name": "sigS",
          "type": "bytes32"
        },
        {
          "internalType": "uint8",
          "name": "sigV",
          "type": "uint8"
        }
      ],
      "name": "executeMetaTransaction",
      "outputs": [
        {
          "internalType": "bytes",
          "name": "",
          "type": "bytes"
        }
      ],
      "stateMutability": "payable",
      "type": "function",
      "payable": true
    },
    {
      "inputs": [
        {
          "internalType": "uint256",
          "name": "tokenId",
          "type": "uint256"
        }
      ],
      "name": "getApproved",
      "outputs": [
        {
          "internalType": "address",
          "name": "",
          "type": "address"
        }
      ],
      "stateMutability": "view",
      "type": "function",
      "constant": true
    },
    {
      "inputs": [],
      "name": "getChainId",
      "outputs": [
        {
          "internalType": "uint256",
          "name": "",
          "type": "uint256"
        }
      ],
      "stateMutability": "view",
      "type": "function",
      "constant": true
    },
    {
      "inputs": [],
      "name": "getDomainSeperator",
      "outputs": [
        {
          "internalType": "bytes32",
          "name": "",
          "type": "bytes32"
        }
      ],
      "stateMutability": "view",
      "type": "function",
      "constant": true
    },
    {
      "inputs": [
        {
          "internalType": "address",
          "name": "user",
          "type": "address"
        }
      ],
      "name": "getNonce",
      "outputs": [
        {
          "internalType": "uint256",
          "name": "nonce",
          "type": "uint256"
        }
      ],
      "stateMutability": "view",
      "type": "function",
      "constant": true
    },
    {
      "inputs": [
        {
          "internalType": "address",
          "name": "owner",
          "type": "address"
        },
        {
          "internalType": "address",
          "name": "operator",
          "type": "address"
        }
      ],
      "name": "isApprovedForAll",
      "outputs": [
        {
          "internalType": "bool",
          "name": "",
          "type": "bool"
        }
      ],
      "stateMutability": "view",
      "type": "function",
      "constant": true
    },
    {
      "inputs": [
        {
          "internalType": "address",
          "name": "_to",
          "type": "address"
        }
      ],
      "name": "mintTo",
      "outputs": [],
      "stateMutability": "nonpayable",
      "type": "function"
    },
    {
      "inputs": [],
      "name": "name",
      "outputs": [
        {
          "internalType": "string",
          "name": "",
          "type": "string"
        }
      ],
      "stateMutability": "view",
      "type": "function",
      "constant": true
    },
    {
      "inputs": [],
      "name": "owner",
      "outputs": [
        {
          "internalType": "address",
          "name": "",
          "type": "address"
        }
      ],
      "stateMutability": "view",
      "type": "function",
      "constant": true
    },
    {
      "inputs": [
        {
          "internalType": "uint256",
          "name": "tokenId",
          "type": "uint256"
        }
      ],
      "name": "ownerOf",
      "outputs": [
        {
          "internalType": "address",
          "name": "",
          "type": "address"
        }
      ],
      "stateMutability": "view",
      "type": "function",
      "constant": true
    },
    {
      "inputs": [],
      "name": "renounceOwnership",
      "outputs": [],
      "stateMutability": "nonpayable",
      "type": "function"
    },
    {
      "inputs": [
        {
          "internalType": "address",
          "name": "from",
          "type": "address"
        },
        {
          "internalType": "address",
          "name": "to",
          "type": "address"
        },
        {
          "internalType": "uint256",
          "name": "tokenId",
          "type": "uint256"
        }
      ],
      "name": "safeTransferFrom",
      "outputs": [],
      "stateMutability": "nonpayable",
      "type": "function"
    },
    {
      "inputs": [
        {
          "internalType": "address",
          "name": "from",
          "type": "address"
        },
        {
          "internalType": "address",
          "name": "to",
          "type": "address"
        },
        {
          "internalType": "uint256",
          "name": "tokenId",
          "type": "uint256"
        },
        {
          "internalType": "bytes",
          "name": "data",
          "type": "bytes"
        }
      ],
      "name": "safeTransferFrom",
      "outputs": [],
      "stateMutability": "nonpayable",
      "type": "function"
    },
    {
      "inputs": [
        {
          "internalType": "address",
          "name": "operator",
          "type": "address"
        },
        {
          "internalType": "bool",
          "name": "approved",
          "type": "bool"
        }
      ],
      "name": "setApprovalForAll",
      "outputs": [],
      "stateMutability": "nonpayable",
      "type": "function"
    },
    {
      "inputs": [
        {
          "internalType": "bytes4",
          "name": "interfaceId",
          "type": "bytes4"
        }
      ],
      "name": "supportsInterface",
      "outputs": [
        {
          "internalType": "bool",
          "name": "",
          "type": "bool"
        }
      ],
      "stateMutability": "view",
      "type": "function",
      "constant": true
    },
    {
      "inputs": [],
      "name": "symbol",
      "outputs": [
        {
          "internalType": "string",
          "name": "",
          "type": "string"
        }
      ],
      "stateMutability": "view",
      "type": "function",
      "constant": true
    },
    {
      "inputs": [
        {
          "internalType": "uint256",
          "name": "_tokenId",
          "type": "uint256"
        }
      ],
      "name": "tokenURI",
      "outputs": [
        {
          "internalType": "string",
          "name": "",
          "type": "string"
        }
      ],
      "stateMutability": "pure",
      "type": "function",
      "constant": true
    },
    {
      "inputs": [],
      "name": "totalSupply",
      "outputs": [
        {
          "internalType": "uint256",
          "name": "",
          "type": "uint256"
        }
      ],
      "stateMutability": "view",
      "type": "function",
      "constant": true
    },
    {
      "inputs": [
        {
          "internalType": "address",
          "name": "from",
          "type": "address"
        },
        {
          "internalType": "address",
          "name": "to",
          "type": "address"
        },
        {
          "internalType": "uint256",
          "name": "tokenId",
          "type": "uint256"
        }
      ],
      "name": "transferFrom",
      "outputs": [],
      "stateMutability": "nonpayable",
      "type": "function"
    },
    {
      "inputs": [
        {
          "internalType": "address",
          "name": "newOwner",
          "type": "address"
        }
      ],
      "name": "transferOwnership",
      "outputs": [],
      "stateMutability": "nonpayable",
      "type": "function"
    },
    {
      "inputs": [],
      "name": "baseTokenURI",
      "outputs": [
        {
          "internalType": "string",
          "name": "",
          "type": "string"
        }
      ],
      "stateMutability": "pure",
      "type": "function",
      "constant": true
    },
    {
      "inputs": [],
      "name": "contractURI",
      "outputs": [
        {
          "internalType": "string",
          "name": "",
          "type": "string"
        }
      ],
      "stateMutability": "pure",
      "type": "function",
      "constant": true
    }
  ],
  "bytecode": "0x60806040526000600660006101000a81548160ff0219169083151502179055503480156200002c57600080fd5b5060405162003c8438038062003c84833981810160405281019062000052919062000538565b6040518060400160405280600b81526020017f4d6172736c616e644e46540000000000000000000000000000000000000000008152506040518060400160405280600381526020017f4d4c4300000000000000000000000000000000000000000000000000000000008152508282828160009080519060200190620000d992919062000471565b508060019080519060200190620000f292919062000471565b50505062000115620001096200018860201b60201c565b620001a460201b60201c565b80600b60006101000a81548173ffffffffffffffffffffffffffffffffffffffff021916908373ffffffffffffffffffffffffffffffffffffffff1602179055506200016d600a6200026a60201b620011301760201c565b6200017e836200028060201b60201c565b5050505062000723565b60006200019f6200030260201b620011461760201c565b905090565b6000600960009054906101000a900473ffffffffffffffffffffffffffffffffffffffff16905081600960006101000a81548173ffffffffffffffffffffffffffffffffffffffff021916908373ffffffffffffffffffffffffffffffffffffffff1602179055508173ffffffffffffffffffffffffffffffffffffffff168173ffffffffffffffffffffffffffffffffffffffff167f8be0079c531659141344cd1fd0a4f28419497f9722a3daafe3b4186f6b6457e060405160405180910390a35050565b6001816000016000828254019250508190555050565b600660009054906101000a900460ff1615620002d3576040517f08c379a0000000000000000000000000000000000000000000000000000000008152600401620002ca906200060a565b60405180910390fd5b620002e481620003b560201b60201c565b6001600660006101000a81548160ff02191690831515021790555050565b60003073ffffffffffffffffffffffffffffffffffffffff163373ffffffffffffffffffffffffffffffffffffffff161415620003ae57600080368080601f016020809104026020016040519081016040528093929190818152602001838380828437600081840152601f19601f820116905080830192505050505050509050600080369050905073ffffffffffffffffffffffffffffffffffffffff818301511692505050620003b2565b3390505b90565b6040518060800160405280604f815260200162003c35604f91398051906020012081805190602001206040518060400160405280600181526020017f310000000000000000000000000000000000000000000000000000000000000081525080519060200120306200042c6200046460201b60201c565b60001b60405160200162000445959493929190620005ad565b6040516020818303038152906040528051906020012060078190555050565b6000804690508091505090565b8280546200047f906200067b565b90600052602060002090601f016020900481019282620004a35760008555620004ef565b82601f10620004be57805160ff1916838001178555620004ef565b82800160010185558215620004ef579182015b82811115620004ee578251825591602001919060010190620004d1565b5b509050620004fe919062000502565b5090565b5b808211156200051d57600081600090555060010162000503565b5090565b600081519050620005328162000709565b92915050565b6000602082840312156200054b57600080fd5b60006200055b8482850162000521565b91505092915050565b6200056f816200063d565b82525050565b620005808162000651565b82525050565b600062000595600e836200062c565b9150620005a282620006e0565b602082019050919050565b600060a082019050620005c4600083018862000575565b620005d3602083018762000575565b620005e2604083018662000575565b620005f1606083018562000564565b62000600608083018462000575565b9695505050505050565b60006020820190508181036000830152620006258162000586565b9050919050565b600082825260208201905092915050565b60006200064a826200065b565b9050919050565b6000819050919050565b600073ffffffffffffffffffffffffffffffffffffffff82169050919050565b600060028204905060018216806200069457607f821691505b60208210811415620006ab57620006aa620006b1565b5b50919050565b7f4e487b7100000000000000000000000000000000000000000000000000000000600052602260045260246000fd5b7f616c726561647920696e69746564000000000000000000000000000000000000600082015250565b62000714816200063d565b81146200072057600080fd5b50565b61350280620007336000396000f3fe6080604052600436106101665760003560e01c80636352211e116100d1578063a22cb4651161008a578063d547cfb711610064578063d547cfb714610543578063e8a3d4851461056e578063e985e9c514610599578063f2fde38b146105d657610166565b8063a22cb465146104b4578063b88d4fde146104dd578063c87b56dd1461050657610166565b80636352211e146103a457806370a08231146103e1578063715018a61461041e578063755edd17146104355780638da5cb5b1461045e57806395d89b411461048957610166565b806318160ddd1161012357806318160ddd1461029457806320379ee5146102bf57806323b872dd146102ea5780632d0335ab146103135780633408e4701461035057806342842e0e1461037b57610166565b806301ffc9a71461016b57806306fdde03146101a8578063081812fc146101d3578063095ea7b3146102105780630c53c51c146102395780630f7e597014610269575b600080fd5b34801561017757600080fd5b50610192600480360381019061018d91906123a8565b6105ff565b60405161019f91906128e5565b60405180910390f35b3480156101b457600080fd5b506101bd6106e1565b6040516101ca91906129c7565b60405180910390f35b3480156101df57600080fd5b506101fa60048036038101906101f59190612423565b610773565b6040516102079190612840565b60405180910390f35b34801561021c57600080fd5b506102376004803603810190610232919061236c565b6107b9565b005b610253600480360381019061024e91906122dd565b6108d1565b60405161026091906129a5565b60405180910390f35b34801561027557600080fd5b5061027e610b43565b60405161028b91906129c7565b60405180910390f35b3480156102a057600080fd5b506102a9610b7c565b6040516102b69190612be9565b60405180910390f35b3480156102cb57600080fd5b506102d4610b99565b6040516102e19190612900565b60405180910390f35b3480156102f657600080fd5b50610311600480360381019061030c91906121d7565b610ba3565b005b34801561031f57600080fd5b5061033a60048036038101906103359190612172565b610c03565b6040516103479190612be9565b60405180910390f35b34801561035c57600080fd5b50610365610c4c565b6040516103729190612be9565b60405180910390f35b34801561038757600080fd5b506103a2600480360381019061039d91906121d7565b610c59565b005b3480156103b057600080fd5b506103cb60048036038101906103c69190612423565b610c79565b6040516103d89190612840565b60405180910390f35b3480156103ed57600080fd5b5061040860048036038101906104039190612172565b610d2b565b6040516104159190612be9565b60405180910390f35b34801561042a57600080fd5b50610433610de3565b005b34801561044157600080fd5b5061045c60048036038101906104579190612172565b610df7565b005b34801561046a57600080fd5b50610473610e25565b6040516104809190612840565b60405180910390f35b34801561049557600080fd5b5061049e610e4f565b6040516104ab91906129c7565b60405180910390f35b3480156104c057600080fd5b506104db60048036038101906104d691906122a1565b610ee1565b005b3480156104e957600080fd5b5061050460048036038101906104ff9190612226565b610ef7565b005b34801561051257600080fd5b5061052d60048036038101906105289190612423565b610f59565b60405161053a91906129c7565b60405180910390f35b34801561054f57600080fd5b50610558610f6a565b60405161056591906129c7565b60405180910390f35b34801561057a57600080fd5b50610583610f8a565b60405161059091906129c7565b60405180910390f35b3480156105a557600080fd5b506105c060048036038101906105bb919061219b565b610faa565b6040516105cd91906128e5565b60405180910390f35b3480156105e257600080fd5b506105fd60048036038101906105f89190612172565b6110ac565b005b60007f80ac58cd000000000000000000000000000000000000000000000000000000007bffffffffffffffffffffffffffffffffffffffffffffffffffffffff1916827bffffffffffffffffffffffffffffffffffffffffffffffffffffffff191614806106ca57507f5b5e139f000000000000000000000000000000000000000000000000000000007bffffffffffffffffffffffffffffffffffffffffffffffffffffffff1916827bffffffffffffffffffffffffffffffffffffffffffffffffffffffff1916145b806106da57506106d9826111f7565b5b9050919050565b6060600080546106f090612e23565b80601f016020809104026020016040519081016040528092919081815260200182805461071c90612e23565b80156107695780601f1061073e57610100808354040283529160200191610769565b820191906000526020600020905b81548152906001019060200180831161074c57829003601f168201915b5050505050905090565b600061077e82611261565b6004600083815260200190815260200160002060009054906101000a900473ffffffffffffffffffffffffffffffffffffffff169050919050565b60006107c482610c79565b90508073ffffffffffffffffffffffffffffffffffffffff168373ffffffffffffffffffffffffffffffffffffffff161415610835576040517f08c379a000000000000000000000000000000000000000000000000000000000815260040161082c90612ba9565b60405180910390fd5b8073ffffffffffffffffffffffffffffffffffffffff166108546112ac565b73ffffffffffffffffffffffffffffffffffffffff16148061088357506108828161087d6112ac565b610faa565b5b6108c2576040517f08c379a00000000000000000000000000000000000000000000000000000000081526004016108b990612b09565b60405180910390fd5b6108cc83836112bb565b505050565b606060006040518060600160405280600860008a73ffffffffffffffffffffffffffffffffffffffff1673ffffffffffffffffffffffffffffffffffffffff1681526020019081526020016000205481526020018873ffffffffffffffffffffffffffffffffffffffff1681526020018781525090506109548782878787611374565b610993576040517f08c379a000000000000000000000000000000000000000000000000000000000815260040161098a90612b69565b60405180910390fd5b6109e66001600860008a73ffffffffffffffffffffffffffffffffffffffff1673ffffffffffffffffffffffffffffffffffffffff1681526020019081526020016000205461147d90919063ffffffff16565b600860008973ffffffffffffffffffffffffffffffffffffffff1673ffffffffffffffffffffffffffffffffffffffff168152602001908152602001600020819055507f5845892132946850460bff5a0083f71031bc5bf9aadcd40f1de79423eac9b10b873388604051610a5c9392919061285b565b60405180910390a16000803073ffffffffffffffffffffffffffffffffffffffff16888a604051602001610a919291906127e1565b604051602081830303815290604052604051610aad91906127ca565b6000604051808303816000865af19150503d8060008114610aea576040519150601f19603f3d011682016040523d82523d6000602084013e610aef565b606091505b509150915081610b34576040517f08c379a0000000000000000000000000000000000000000000000000000000008152600401610b2b90612a29565b60405180910390fd5b80935050505095945050505050565b6040518060400160405280600181526020017f310000000000000000000000000000000000000000000000000000000000000081525081565b60006001610b8a600a611493565b610b949190612cfe565b905090565b6000600754905090565b610bb4610bae6112ac565b826114a1565b610bf3576040517f08c379a0000000000000000000000000000000000000000000000000000000008152600401610bea90612bc9565b60405180910390fd5b610bfe838383611536565b505050565b6000600860008373ffffffffffffffffffffffffffffffffffffffff1673ffffffffffffffffffffffffffffffffffffffff168152602001908152602001600020549050919050565b6000804690508091505090565b610c7483838360405180602001604052806000815250610ef7565b505050565b6000806002600084815260200190815260200160002060009054906101000a900473ffffffffffffffffffffffffffffffffffffffff169050600073ffffffffffffffffffffffffffffffffffffffff168173ffffffffffffffffffffffffffffffffffffffff161415610d22576040517f08c379a0000000000000000000000000000000000000000000000000000000008152600401610d1990612b89565b60405180910390fd5b80915050919050565b60008073ffffffffffffffffffffffffffffffffffffffff168273ffffffffffffffffffffffffffffffffffffffff161415610d9c576040517f08c379a0000000000000000000000000000000000000000000000000000000008152600401610d9390612ae9565b60405180910390fd5b600360008373ffffffffffffffffffffffffffffffffffffffff1673ffffffffffffffffffffffffffffffffffffffff168152602001908152602001600020549050919050565b610deb61179d565b610df5600061181b565b565b610dff61179d565b6000610e0b600a611493565b9050610e17600a611130565b610e2182826118e1565b5050565b6000600960009054906101000a900473ffffffffffffffffffffffffffffffffffffffff16905090565b606060018054610e5e90612e23565b80601f0160208091040260200160405190810160405280929190818152602001828054610e8a90612e23565b8015610ed75780601f10610eac57610100808354040283529160200191610ed7565b820191906000526020600020905b815481529060010190602001808311610eba57829003601f168201915b5050505050905090565b610ef3610eec6112ac565b83836118ff565b5050565b610f08610f026112ac565b836114a1565b610f47576040517f08c379a0000000000000000000000000000000000000000000000000000000008152600401610f3e90612bc9565b60405180910390fd5b610f5384848484611a6c565b50505050565b6060610f63610f6a565b9050919050565b60606040518060600160405280602a81526020016134a3602a9139905090565b60606040518060600160405280602a8152602001613479602a9139905090565b600080600b60009054906101000a900473ffffffffffffffffffffffffffffffffffffffff1690508273ffffffffffffffffffffffffffffffffffffffff168173ffffffffffffffffffffffffffffffffffffffff1663c4552791866040518263ffffffff1660e01b81526004016110229190612840565b60206040518083038186803b15801561103a57600080fd5b505afa15801561104e573d6000803e3d6000fd5b505050506040513d601f19601f8201168201806040525081019061107291906123fa565b73ffffffffffffffffffffffffffffffffffffffff1614156110985760019150506110a6565b6110a28484611ac8565b9150505b92915050565b6110b461179d565b600073ffffffffffffffffffffffffffffffffffffffff168173ffffffffffffffffffffffffffffffffffffffff161415611124576040517f08c379a000000000000000000000000000000000000000000000000000000000815260040161111b90612a09565b60405180910390fd5b61112d8161181b565b50565b6001816000016000828254019250508190555050565b60003073ffffffffffffffffffffffffffffffffffffffff163373ffffffffffffffffffffffffffffffffffffffff1614156111f057600080368080601f016020809104026020016040519081016040528093929190818152602001838380828437600081840152601f19601f820116905080830192505050505050509050600080369050905073ffffffffffffffffffffffffffffffffffffffff8183015116925050506111f4565b3390505b90565b60007f01ffc9a7000000000000000000000000000000000000000000000000000000007bffffffffffffffffffffffffffffffffffffffffffffffffffffffff1916827bffffffffffffffffffffffffffffffffffffffffffffffffffffffff1916149050919050565b61126a81611b5c565b6112a9576040517f08c379a00000000000000000000000000000000000000000000000000000000081526004016112a090612b89565b60405180910390fd5b50565b60006112b6611146565b905090565b816004600083815260200190815260200160002060006101000a81548173ffffffffffffffffffffffffffffffffffffffff021916908373ffffffffffffffffffffffffffffffffffffffff160217905550808273ffffffffffffffffffffffffffffffffffffffff1661132e83610c79565b73ffffffffffffffffffffffffffffffffffffffff167f8c5be1e5ebec7d5bd14f71427d1e84f3dd0314c0f7b2291e5b200ac8c7c3b92560405160405180910390a45050565b60008073ffffffffffffffffffffffffffffffffffffffff168673ffffffffffffffffffffffffffffffffffffffff1614156113e5576040517f08c379a00000000000000000000000000000000000000000000000000000000081526004016113dc90612ac9565b60405180910390fd5b60016113f86113f387611bc8565b611c30565b838686604051600081526020016040526040516114189493929190612960565b6020604051602081039080840390855afa15801561143a573d6000803e3d6000fd5b5050506020604051035173ffffffffffffffffffffffffffffffffffffffff168673ffffffffffffffffffffffffffffffffffffffff1614905095945050505050565b6000818361148b9190612ca8565b905092915050565b600081600001549050919050565b6000806114ad83610c79565b90508073ffffffffffffffffffffffffffffffffffffffff168473ffffffffffffffffffffffffffffffffffffffff1614806114ef57506114ee8185610faa565b5b8061152d57508373ffffffffffffffffffffffffffffffffffffffff1661151584610773565b73ffffffffffffffffffffffffffffffffffffffff16145b91505092915050565b8273ffffffffffffffffffffffffffffffffffffffff1661155682610c79565b73ffffffffffffffffffffffffffffffffffffffff16146115ac576040517f08c379a00000000000000000000000000000000000000000000000000000000081526004016115a390612a49565b60405180910390fd5b600073ffffffffffffffffffffffffffffffffffffffff168273ffffffffffffffffffffffffffffffffffffffff16141561161c576040517f08c379a000000000000000000000000000000000000000000000000000000000815260040161161390612a89565b60405180910390fd5b611627838383611c69565b6116326000826112bb565b6001600360008573ffffffffffffffffffffffffffffffffffffffff1673ffffffffffffffffffffffffffffffffffffffff16815260200190815260200160002060008282546116829190612cfe565b925050819055506001600360008473ffffffffffffffffffffffffffffffffffffffff1673ffffffffffffffffffffffffffffffffffffffff16815260200190815260200160002060008282546116d99190612ca8565b92505081905550816002600083815260200190815260200160002060006101000a81548173ffffffffffffffffffffffffffffffffffffffff021916908373ffffffffffffffffffffffffffffffffffffffff160217905550808273ffffffffffffffffffffffffffffffffffffffff168473ffffffffffffffffffffffffffffffffffffffff167fddf252ad1be2c89b69c2b068fc378daa952ba7f163c4a11628f55a4df523b3ef60405160405180910390a4611798838383611c6e565b505050565b6117a56112ac565b73ffffffffffffffffffffffffffffffffffffffff166117c3610e25565b73ffffffffffffffffffffffffffffffffffffffff1614611819576040517f08c379a000000000000000000000000000000000000000000000000000000000815260040161181090612b49565b60405180910390fd5b565b6000600960009054906101000a900473ffffffffffffffffffffffffffffffffffffffff16905081600960006101000a81548173ffffffffffffffffffffffffffffffffffffffff021916908373ffffffffffffffffffffffffffffffffffffffff1602179055508173ffffffffffffffffffffffffffffffffffffffff168173ffffffffffffffffffffffffffffffffffffffff167f8be0079c531659141344cd1fd0a4f28419497f9722a3daafe3b4186f6b6457e060405160405180910390a35050565b6118fb828260405180602001604052806000815250611c73565b5050565b8173ffffffffffffffffffffffffffffffffffffffff168373ffffffffffffffffffffffffffffffffffffffff16141561196e576040517f08c379a000000000000000000000000000000000000000000000000000000000815260040161196590612aa9565b60405180910390fd5b80600560008573ffffffffffffffffffffffffffffffffffffffff1673ffffffffffffffffffffffffffffffffffffffff16815260200190815260200160002060008473ffffffffffffffffffffffffffffffffffffffff1673ffffffffffffffffffffffffffffffffffffffff16815260200190815260200160002060006101000a81548160ff0219169083151502179055508173ffffffffffffffffffffffffffffffffffffffff168373ffffffffffffffffffffffffffffffffffffffff167f17307eab39ab6107e8899845ad3d59bd9653f200f220920489ca2b5937696c3183604051611a5f91906128e5565b60405180910390a3505050565b611a77848484611536565b611a8384848484611cce565b611ac2576040517f08c379a0000000000000000000000000000000000000000000000000000000008152600401611ab9906129e9565b60405180910390fd5b50505050565b6000600560008473ffffffffffffffffffffffffffffffffffffffff1673ffffffffffffffffffffffffffffffffffffffff16815260200190815260200160002060008373ffffffffffffffffffffffffffffffffffffffff1673ffffffffffffffffffffffffffffffffffffffff16815260200190815260200160002060009054906101000a900460ff16905092915050565b60008073ffffffffffffffffffffffffffffffffffffffff166002600084815260200190815260200160002060009054906101000a900473ffffffffffffffffffffffffffffffffffffffff1673ffffffffffffffffffffffffffffffffffffffff1614159050919050565b6000604051806080016040528060438152602001613436604391398051906020012082600001518360200151846040015180519060200120604051602001611c13949392919061291b565b604051602081830303815290604052805190602001209050919050565b6000611c3a610b99565b82604051602001611c4c929190612809565b604051602081830303815290604052805190602001209050919050565b505050565b505050565b611c7d8383611e65565b611c8a6000848484611cce565b611cc9576040517f08c379a0000000000000000000000000000000000000000000000000000000008152600401611cc0906129e9565b60405180910390fd5b505050565b6000611cef8473ffffffffffffffffffffffffffffffffffffffff1661203f565b15611e58578373ffffffffffffffffffffffffffffffffffffffff1663150b7a02611d186112ac565b8786866040518563ffffffff1660e01b8152600401611d3a9493929190612899565b602060405180830381600087803b158015611d5457600080fd5b505af1925050508015611d8557506040513d601f19601f82011682018060405250810190611d8291906123d1565b60015b611e08573d8060008114611db5576040519150601f19603f3d011682016040523d82523d6000602084013e611dba565b606091505b50600081511415611e00576040517f08c379a0000000000000000000000000000000000000000000000000000000008152600401611df7906129e9565b60405180910390fd5b805181602001fd5b63150b7a0260e01b7bffffffffffffffffffffffffffffffffffffffffffffffffffffffff1916817bffffffffffffffffffffffffffffffffffffffffffffffffffffffff191614915050611e5d565b600190505b949350505050565b600073ffffffffffffffffffffffffffffffffffffffff168273ffffffffffffffffffffffffffffffffffffffff161415611ed5576040517f08c379a0000000000000000000000000000000000000000000000000000000008152600401611ecc90612b29565b60405180910390fd5b611ede81611b5c565b15611f1e576040517f08c379a0000000000000000000000000000000000000000000000000000000008152600401611f1590612a69565b60405180910390fd5b611f2a60008383611c69565b6001600360008473ffffffffffffffffffffffffffffffffffffffff1673ffffffffffffffffffffffffffffffffffffffff1681526020019081526020016000206000828254611f7a9190612ca8565b92505081905550816002600083815260200190815260200160002060006101000a81548173ffffffffffffffffffffffffffffffffffffffff021916908373ffffffffffffffffffffffffffffffffffffffff160217905550808273ffffffffffffffffffffffffffffffffffffffff16600073ffffffffffffffffffffffffffffffffffffffff167fddf252ad1be2c89b69c2b068fc378daa952ba7f163c4a11628f55a4df523b3ef60405160405180910390a461203b60008383611c6e565b5050565b6000808273ffffffffffffffffffffffffffffffffffffffff163b119050919050565b600061207561207084612c29565b612c04565b90508281526020810184848401111561208d57600080fd5b612098848285612de1565b509392505050565b6000813590506120af81613394565b92915050565b6000813590506120c4816133ab565b92915050565b6000813590506120d9816133c2565b92915050565b6000813590506120ee816133d9565b92915050565b600081519050612103816133d9565b92915050565b600082601f83011261211a57600080fd5b813561212a848260208601612062565b91505092915050565b600081519050612142816133f0565b92915050565b60008135905061215781613407565b92915050565b60008135905061216c8161341e565b92915050565b60006020828403121561218457600080fd5b6000612192848285016120a0565b91505092915050565b600080604083850312156121ae57600080fd5b60006121bc858286016120a0565b92505060206121cd858286016120a0565b9150509250929050565b6000806000606084860312156121ec57600080fd5b60006121fa868287016120a0565b935050602061220b868287016120a0565b925050604061221c86828701612148565b9150509250925092565b6000806000806080858703121561223c57600080fd5b600061224a878288016120a0565b945050602061225b878288016120a0565b935050604061226c87828801612148565b925050606085013567ffffffffffffffff81111561228957600080fd5b61229587828801612109565b91505092959194509250565b600080604083850312156122b457600080fd5b60006122c2858286016120a0565b92505060206122d3858286016120b5565b9150509250929050565b600080600080600060a086880312156122f557600080fd5b6000612303888289016120a0565b955050602086013567ffffffffffffffff81111561232057600080fd5b61232c88828901612109565b945050604061233d888289016120ca565b935050606061234e888289016120ca565b925050608061235f8882890161215d565b9150509295509295909350565b6000806040838503121561237f57600080fd5b600061238d858286016120a0565b925050602061239e85828601612148565b9150509250929050565b6000602082840312156123ba57600080fd5b60006123c8848285016120df565b91505092915050565b6000602082840312156123e357600080fd5b60006123f1848285016120f4565b91505092915050565b60006020828403121561240c57600080fd5b600061241a84828501612133565b91505092915050565b60006020828403121561243557600080fd5b600061244384828501612148565b91505092915050565b61245581612d44565b82525050565b61246481612d32565b82525050565b61247b61247682612d32565b612e86565b82525050565b61248a81612d56565b82525050565b61249981612d62565b82525050565b6124b06124ab82612d62565b612e98565b82525050565b60006124c182612c5a565b6124cb8185612c70565b93506124db818560208601612df0565b6124e481612f41565b840191505092915050565b60006124fa82612c5a565b6125048185612c81565b9350612514818560208601612df0565b80840191505092915050565b600061252b82612c65565b6125358185612c8c565b9350612545818560208601612df0565b61254e81612f41565b840191505092915050565b6000612566603283612c8c565b915061257182612f5f565b604082019050919050565b6000612589602683612c8c565b915061259482612fae565b604082019050919050565b60006125ac601c83612c8c565b91506125b782612ffd565b602082019050919050565b60006125cf602583612c8c565b91506125da82613026565b604082019050919050565b60006125f2601c83612c8c565b91506125fd82613075565b602082019050919050565b6000612615600283612c9d565b91506126208261309e565b600282019050919050565b6000612638602483612c8c565b9150612643826130c7565b604082019050919050565b600061265b601983612c8c565b915061266682613116565b602082019050919050565b600061267e602583612c8c565b91506126898261313f565b604082019050919050565b60006126a1602983612c8c565b91506126ac8261318e565b604082019050919050565b60006126c4603e83612c8c565b91506126cf826131dd565b604082019050919050565b60006126e7602083612c8c565b91506126f28261322c565b602082019050919050565b600061270a602083612c8c565b915061271582613255565b602082019050919050565b600061272d602183612c8c565b91506127388261327e565b604082019050919050565b6000612750601883612c8c565b915061275b826132cd565b602082019050919050565b6000612773602183612c8c565b915061277e826132f6565b604082019050919050565b6000612796602e83612c8c565b91506127a182613345565b604082019050919050565b6127b581612dca565b82525050565b6127c481612dd4565b82525050565b60006127d682846124ef565b915081905092915050565b60006127ed82856124ef565b91506127f9828461246a565b6014820191508190509392505050565b600061281482612608565b9150612820828561249f565b602082019150612830828461249f565b6020820191508190509392505050565b6000602082019050612855600083018461245b565b92915050565b6000606082019050612870600083018661245b565b61287d602083018561244c565b818103604083015261288f81846124b6565b9050949350505050565b60006080820190506128ae600083018761245b565b6128bb602083018661245b565b6128c860408301856127ac565b81810360608301526128da81846124b6565b905095945050505050565b60006020820190506128fa6000830184612481565b92915050565b60006020820190506129156000830184612490565b92915050565b60006080820190506129306000830187612490565b61293d60208301866127ac565b61294a604083018561245b565b6129576060830184612490565b95945050505050565b60006080820190506129756000830187612490565b61298260208301866127bb565b61298f6040830185612490565b61299c6060830184612490565b95945050505050565b600060208201905081810360008301526129bf81846124b6565b905092915050565b600060208201905081810360008301526129e18184612520565b905092915050565b60006020820190508181036000830152612a0281612559565b9050919050565b60006020820190508181036000830152612a228161257c565b9050919050565b60006020820190508181036000830152612a428161259f565b9050919050565b60006020820190508181036000830152612a62816125c2565b9050919050565b60006020820190508181036000830152612a82816125e5565b9050919050565b60006020820190508181036000830152612aa28161262b565b9050919050565b60006020820190508181036000830152612ac28161264e565b9050919050565b60006020820190508181036000830152612ae281612671565b9050919050565b60006020820190508181036000830152612b0281612694565b9050919050565b60006020820190508181036000830152612b22816126b7565b9050919050565b60006020820190508181036000830152612b42816126da565b9050919050565b60006020820190508181036000830152612b62816126fd565b9050919050565b60006020820190508181036000830152612b8281612720565b9050919050565b60006020820190508181036000830152612ba281612743565b9050919050565b60006020820190508181036000830152612bc281612766565b9050919050565b60006020820190508181036000830152612be281612789565b9050919050565b6000602082019050612bfe60008301846127ac565b92915050565b6000612c0e612c1f565b9050612c1a8282612e55565b919050565b6000604051905090565b600067ffffffffffffffff821115612c4457612c43612f12565b5b612c4d82612f41565b9050602081019050919050565b600081519050919050565b600081519050919050565b600082825260208201905092915050565b600081905092915050565b600082825260208201905092915050565b600081905092915050565b6000612cb382612dca565b9150612cbe83612dca565b9250827fffffffffffffffffffffffffffffffffffffffffffffffffffffffffffffffff03821115612cf357612cf2612eb4565b5b828201905092915050565b6000612d0982612dca565b9150612d1483612dca565b925082821015612d2757612d26612eb4565b5b828203905092915050565b6000612d3d82612daa565b9050919050565b6000612d4f82612daa565b9050919050565b60008115159050919050565b6000819050919050565b60007fffffffff0000000000000000000000000000000000000000000000000000000082169050919050565b6000612da382612d32565b9050919050565b600073ffffffffffffffffffffffffffffffffffffffff82169050919050565b6000819050919050565b600060ff82169050919050565b82818337600083830152505050565b60005b83811015612e0e578082015181840152602081019050612df3565b83811115612e1d576000848401525b50505050565b60006002820490506001821680612e3b57607f821691505b60208210811415612e4f57612e4e612ee3565b5b50919050565b612e5e82612f41565b810181811067ffffffffffffffff82111715612e7d57612e7c612f12565b5b80604052505050565b6000612e9182612ea2565b9050919050565b6000819050919050565b6000612ead82612f52565b9050919050565b7f4e487b7100000000000000000000000000000000000000000000000000000000600052601160045260246000fd5b7f4e487b7100000000000000000000000000000000000000000000000000000000600052602260045260246000fd5b7f4e487b7100000000000000000000000000000000000000000000000000000000600052604160045260246000fd5b6000601f19601f8301169050919050565b60008160601b9050919050565b7f4552433732313a207472616e7366657220746f206e6f6e20455243373231526560008201527f63656976657220696d706c656d656e7465720000000000000000000000000000602082015250565b7f4f776e61626c653a206e6577206f776e657220697320746865207a65726f206160008201527f6464726573730000000000000000000000000000000000000000000000000000602082015250565b7f46756e6374696f6e2063616c6c206e6f74207375636365737366756c00000000600082015250565b7f4552433732313a207472616e736665722066726f6d20696e636f72726563742060008201527f6f776e6572000000000000000000000000000000000000000000000000000000602082015250565b7f4552433732313a20746f6b656e20616c7265616479206d696e74656400000000600082015250565b7f1901000000000000000000000000000000000000000000000000000000000000600082015250565b7f4552433732313a207472616e7366657220746f20746865207a65726f2061646460008201527f7265737300000000000000000000000000000000000000000000000000000000602082015250565b7f4552433732313a20617070726f766520746f2063616c6c657200000000000000600082015250565b7f4e61746976654d6574615472616e73616374696f6e3a20494e56414c49445f5360008201527f49474e4552000000000000000000000000000000000000000000000000000000602082015250565b7f4552433732313a2061646472657373207a65726f206973206e6f74206120766160008201527f6c6964206f776e65720000000000000000000000000000000000000000000000602082015250565b7f4552433732313a20617070726f76652063616c6c6572206973206e6f7420746f60008201527f6b656e206f776e6572206e6f7220617070726f76656420666f7220616c6c0000602082015250565b7f4552433732313a206d696e7420746f20746865207a65726f2061646472657373600082015250565b7f4f776e61626c653a2063616c6c6572206973206e6f7420746865206f776e6572600082015250565b7f5369676e657220616e64207369676e617475726520646f206e6f74206d61746360008201527f6800000000000000000000000000000000000000000000000000000000000000602082015250565b7f4552433732313a20696e76616c696420746f6b656e2049440000000000000000600082015250565b7f4552433732313a20617070726f76616c20746f2063757272656e74206f776e6560008201527f7200000000000000000000000000000000000000000000000000000000000000602082015250565b7f4552433732313a2063616c6c6572206973206e6f7420746f6b656e206f776e6560008201527f72206e6f7220617070726f766564000000000000000000000000000000000000602082015250565b61339d81612d32565b81146133a857600080fd5b50565b6133b481612d56565b81146133bf57600080fd5b50565b6133cb81612d62565b81146133d657600080fd5b50565b6133e281612d6c565b81146133ed57600080fd5b50565b6133f981612d98565b811461340457600080fd5b50565b61341081612dca565b811461341b57600080fd5b50565b61342781612dd4565b811461343257600080fd5b5056fe4d6574615472616e73616374696f6e2875696e74323536206e6f6e63652c616464726573732066726f6d2c62797465732066756e6374696f6e5369676e61747572652968747470733a2f2f6170692e6e706f696e742e696f2f383939393435323762616432666561633331373268747470733a2f2f6170692e6e706f696e742e696f2f3763663666653539393431313562313633343738a2646970667358221220e3b4d0bd88f66463eedc4fa3e474bf25382f6a161d6f039b924fe14be2dd164f64736f6c63430008040033454950373132446f6d61696e28737472696e67206e616d652c737472696e672076657273696f6e2c6164647265737320766572696679696e67436f6e74726163742c627974657333322073616c7429",
  "immutableReferences": {},
  "source": "// SPDX-License-Identifier: MIT\npragma solidity ^0.8.4;\nimport \"./ERC721Tradable.sol\";\n/**\n * @title Creature\n * Creature - a contract for my non-fungible creatures.\n */\ncontract Creature is ERC721Tradable {\n    constructor(address _proxyRegistryAddress)\n        ERC721Tradable(\"MarslandNFT\", \"MLC\", _proxyRegistryAddress)\n    {}\n   function baseTokenURI() override public pure returns (string memory) {\n        //return \"https://api.npoint.io/dd78f9c6f5b242266ed4\"; //gold 1st row\n        //return \"https://api.npoint.io/a4dae0b489eaf8241adf\"; //gold 2nd\n        //return \"https://api.npoint.io/4f52cf0feba256bd9fe9\"; //gold 3rd\n        //return \"https://api.npoint.io/054861bc81131df7d68b\"; //standard sec1\n        //return \"https://api.npoint.io/24bf70eed0c4bd5b68c4\"; //standard sec2\n        //return \"https://api.npoint.io/5186f831a3921394df49\"; //standard sec3\n        //return \"https://api.npoint.io/b38c9ac88e30622e7c9e\"; //standard sec4\n        return \"https://api.npoint.io/a4dae0b489eaf8241adf\"; //standard sec5\n    }\n\n\n    function contractURI() public pure returns (string memory) {\n        return \"https://api.npoint.io/89994527bad2feac3172\";\n    }\n    \n\n\n}\n",
  "sourcePath": "/workspace/contracts/Creature.sol",
  "compiler": {
    "name": "solc",
    "version": "0.8.4+commit.c7e474f2.Emscripten.clang"
  },
  "schemaVersion": "3.4.0",
  "updatedAt": "2023-08-30T04:45:15.523Z",
  "networkType": "ethereum",
  "devdoc": {
    "kind": "dev",
    "methods": {
      "approve(address,uint256)": {
        "details": "See {IERC721-approve}."
      },
      "balanceOf(address)": {
        "details": "See {IERC721-balanceOf}."
      },
      "getApproved(uint256)": {
        "details": "See {IERC721-getApproved}."
      },
      "mintTo(address)": {
        "details": "Mints a token to an address with a tokenURI.",
        "params": {
          "_to": "address of the future owner of the token"
        }
      },
      "name()": {
        "details": "See {IERC721Metadata-name}."
      },
      "owner()": {
        "details": "Returns the address of the current owner."
      },
      "ownerOf(uint256)": {
        "details": "See {IERC721-ownerOf}."
      },
      "renounceOwnership()": {
        "details": "Leaves the contract without owner. It will not be possible to call `onlyOwner` functions anymore. Can only be called by the current owner. NOTE: Renouncing ownership will leave the contract without an owner, thereby removing any functionality that is only available to the owner."
      },
      "safeTransferFrom(address,address,uint256)": {
        "details": "See {IERC721-safeTransferFrom}."
      },
      "safeTransferFrom(address,address,uint256,bytes)": {
        "details": "See {IERC721-safeTransferFrom}."
      },
      "setApprovalForAll(address,bool)": {
        "details": "See {IERC721-setApprovalForAll}."
      },
      "supportsInterface(bytes4)": {
        "details": "See {IERC165-supportsInterface}."
      },
      "symbol()": {
        "details": "See {IERC721Metadata-symbol}."
      },
      "totalSupply()": {
        "details": "Returns the total tokens minted so far. 1 is always subtracted from the Counter since it tracks the next available tokenId."
      },
      "transferFrom(address,address,uint256)": {
        "details": "See {IERC721-transferFrom}."
      },
      "transferOwnership(address)": {
        "details": "Transfers ownership of the contract to a new account (`newOwner`). Can only be called by the current owner."
      }
    },
    "title": "Creature Creature - a contract for my non-fungible creatures.",
    "version": 1
  },
  "userdoc": {
    "kind": "user",
    "methods": {
      "isApprovedForAll(address,address)": {
        "notice": "Override isApprovedForAll to whitelist users OpenSea proxy accounts to enable gas-less listings."
      }
    },
    "version": 1
  }
}