{
  "contractName": "NativeMetaTransaction",
  "abi": [
    {
      "anonymous": false,
      "inputs": [
        {
          "indexed": false,
          "internalType": "address",
          "name": "userAddress",
          "type": "address"
        },
        {
          "indexed": false,
          "internalType": "address payable",
          "name": "relayerAddress",
          "type": "address"
        },
        {
          "indexed": false,
          "internalType": "bytes",
          "name": "functionSignature",
          "type": "bytes"
        }
      ],
      "name": "MetaTransactionExecuted",
      "type": "event"
    },
    {
      "inputs": [],
      "name": "ERC712_VERSION",
      "outputs": [
        {
          "internalType": "string",
          "name": "",
          "type": "string"
        }
      ],
      "stateMutability": "view",
      "type": "function"
    },
    {
      "inputs": [],
      "name": "getChainId",
      "outputs": [
        {
          "internalType": "uint256",
          "name": "",
          "type": "uint256"
        }
      ],
      "stateMutability": "view",
      "type": "function"
    },
    {
      "inputs": [],
      "name": "getDomainSeperator",
      "outputs": [
        {
          "internalType": "bytes32",
          "name": "",
          "type": "bytes32"
        }
      ],
      "stateMutability": "view",
      "type": "function"
    },
    {
      "inputs": [
        {
          "internalType": "address",
          "name": "userAddress",
          "type": "address"
        },
        {
          "internalType": "bytes",
          "name": "functionSignature",
          "type": "bytes"
        },
        {
          "internalType": "bytes32",
          "name": "sigR",
          "type": "bytes32"
        },
        {
          "internalType": "bytes32",
          "name": "sigS",
          "type": "bytes32"
        },
        {
          "internalType": "uint8",
          "name": "sigV",
          "type": "uint8"
        }
      ],
      "name": "executeMetaTransaction",
      "outputs": [
        {
          "internalType": "bytes",
          "name": "",
          "type": "bytes"
        }
      ],
      "stateMutability": "payable",
      "type": "function"
    },
    {
      "inputs": [
        {
          "internalType": "address",
          "name": "user",
          "type": "address"
        }
      ],
      "name": "getNonce",
      "outputs": [
        {
          "internalType": "uint256",
          "name": "nonce",
          "type": "uint256"
        }
      ],
      "stateMutability": "view",
      "type": "function"
    }
  ],
  "bytecode": "0x608060405260008060006101000a81548160ff02191690831515021790555034801561002a57600080fd5b50610f518061003a6000396000f3fe60806040526004361061004a5760003560e01c80630c53c51c1461004f5780630f7e59701461007f57806320379ee5146100aa5780632d0335ab146100d55780633408e47014610112575b600080fd5b610069600480360381019061006491906106d8565b61013d565b6040516100769190610a68565b60405180910390f35b34801561008b57600080fd5b506100946103af565b6040516100a19190610a8a565b60405180910390f35b3480156100b657600080fd5b506100bf6103e8565b6040516100cc91906109c3565b60405180910390f35b3480156100e157600080fd5b506100fc60048036038101906100f791906106af565b6103f2565b6040516101099190610b0c565b60405180910390f35b34801561011e57600080fd5b5061012761043b565b6040516101349190610b0c565b60405180910390f35b606060006040518060600160405280600260008a73ffffffffffffffffffffffffffffffffffffffff1673ffffffffffffffffffffffffffffffffffffffff1681526020019081526020016000205481526020018873ffffffffffffffffffffffffffffffffffffffff1681526020018781525090506101c08782878787610448565b6101ff576040517f08c379a00000000000000000000000000000000000000000000000000000000081526004016101f690610aec565b60405180910390fd5b6102526001600260008a73ffffffffffffffffffffffffffffffffffffffff1673ffffffffffffffffffffffffffffffffffffffff1681526020019081526020016000205461055190919063ffffffff16565b600260008973ffffffffffffffffffffffffffffffffffffffff1673ffffffffffffffffffffffffffffffffffffffff168152602001908152602001600020819055507f5845892132946850460bff5a0083f71031bc5bf9aadcd40f1de79423eac9b10b8733886040516102c893929190610985565b60405180910390a16000803073ffffffffffffffffffffffffffffffffffffffff16888a6040516020016102fd929190610926565b604051602081830303815290604052604051610319919061090f565b6000604051808303816000865af19150503d8060008114610356576040519150601f19603f3d011682016040523d82523d6000602084013e61035b565b606091505b5091509150816103a0576040517f08c379a000000000000000000000000000000000000000000000000000000000815260040161039790610aac565b60405180910390fd5b80935050505095945050505050565b6040518060400160405280600181526020017f310000000000000000000000000000000000000000000000000000000000000081525081565b6000600154905090565b6000600260008373ffffffffffffffffffffffffffffffffffffffff1673ffffffffffffffffffffffffffffffffffffffff168152602001908152602001600020549050919050565b6000804690508091505090565b60008073ffffffffffffffffffffffffffffffffffffffff168673ffffffffffffffffffffffffffffffffffffffff1614156104b9576040517f08c379a00000000000000000000000000000000000000000000000000000000081526004016104b090610acc565b60405180910390fd5b60016104cc6104c787610567565b6105cf565b838686604051600081526020016040526040516104ec9493929190610a23565b6020604051602081039080840390855afa15801561050e573d6000803e3d6000fd5b5050506020604051035173ffffffffffffffffffffffffffffffffffffffff168673ffffffffffffffffffffffffffffffffffffffff1614905095945050505050565b6000818361055f9190610bcb565b905092915050565b6000604051806080016040528060438152602001610ed96043913980519060200120826000015183602001518460400151805190602001206040516020016105b294939291906109de565b604051602081830303815290604052805190602001209050919050565b60006105d96103e8565b826040516020016105eb92919061094e565b604051602081830303815290604052805190602001209050919050565b600061061b61061684610b4c565b610b27565b90508281526020810184848401111561063357600080fd5b61063e848285610c86565b509392505050565b60008135905061065581610e93565b92915050565b60008135905061066a81610eaa565b92915050565b600082601f83011261068157600080fd5b8135610691848260208601610608565b91505092915050565b6000813590506106a981610ec1565b92915050565b6000602082840312156106c157600080fd5b60006106cf84828501610646565b91505092915050565b600080600080600060a086880312156106f057600080fd5b60006106fe88828901610646565b955050602086013567ffffffffffffffff81111561071b57600080fd5b61072788828901610670565b94505060406107388882890161065b565b93505060606107498882890161065b565b925050608061075a8882890161069a565b9150509295509295909350565b61077081610c33565b82525050565b61077f81610c21565b82525050565b61079661079182610c21565b610cf9565b82525050565b6107a581610c45565b82525050565b6107bc6107b782610c45565b610d0b565b82525050565b60006107cd82610b7d565b6107d78185610b93565b93506107e7818560208601610c95565b6107f081610d85565b840191505092915050565b600061080682610b7d565b6108108185610ba4565b9350610820818560208601610c95565b80840191505092915050565b600061083782610b88565b6108418185610baf565b9350610851818560208601610c95565b61085a81610d85565b840191505092915050565b6000610872601c83610baf565b915061087d82610da3565b602082019050919050565b6000610895600283610bc0565b91506108a082610dcc565b600282019050919050565b60006108b8602583610baf565b91506108c382610df5565b604082019050919050565b60006108db602183610baf565b91506108e682610e44565b604082019050919050565b6108fa81610c6f565b82525050565b61090981610c79565b82525050565b600061091b82846107fb565b915081905092915050565b600061093282856107fb565b915061093e8284610785565b6014820191508190509392505050565b600061095982610888565b915061096582856107ab565b60208201915061097582846107ab565b6020820191508190509392505050565b600060608201905061099a6000830186610776565b6109a76020830185610767565b81810360408301526109b981846107c2565b9050949350505050565b60006020820190506109d8600083018461079c565b92915050565b60006080820190506109f3600083018761079c565b610a0060208301866108f1565b610a0d6040830185610776565b610a1a606083018461079c565b95945050505050565b6000608082019050610a38600083018761079c565b610a456020830186610900565b610a52604083018561079c565b610a5f606083018461079c565b95945050505050565b60006020820190508181036000830152610a8281846107c2565b905092915050565b60006020820190508181036000830152610aa4818461082c565b905092915050565b60006020820190508181036000830152610ac581610865565b9050919050565b60006020820190508181036000830152610ae5816108ab565b9050919050565b60006020820190508181036000830152610b05816108ce565b9050919050565b6000602082019050610b2160008301846108f1565b92915050565b6000610b31610b42565b9050610b3d8282610cc8565b919050565b6000604051905090565b600067ffffffffffffffff821115610b6757610b66610d56565b5b610b7082610d85565b9050602081019050919050565b600081519050919050565b600081519050919050565b600082825260208201905092915050565b600081905092915050565b600082825260208201905092915050565b600081905092915050565b6000610bd682610c6f565b9150610be183610c6f565b9250827fffffffffffffffffffffffffffffffffffffffffffffffffffffffffffffffff03821115610c1657610c15610d27565b5b828201905092915050565b6000610c2c82610c4f565b9050919050565b6000610c3e82610c4f565b9050919050565b6000819050919050565b600073ffffffffffffffffffffffffffffffffffffffff82169050919050565b6000819050919050565b600060ff82169050919050565b82818337600083830152505050565b60005b83811015610cb3578082015181840152602081019050610c98565b83811115610cc2576000848401525b50505050565b610cd182610d85565b810181811067ffffffffffffffff82111715610cf057610cef610d56565b5b80604052505050565b6000610d0482610d15565b9050919050565b6000819050919050565b6000610d2082610d96565b9050919050565b7f4e487b7100000000000000000000000000000000000000000000000000000000600052601160045260246000fd5b7f4e487b7100000000000000000000000000000000000000000000000000000000600052604160045260246000fd5b6000601f19601f8301169050919050565b60008160601b9050919050565b7f46756e6374696f6e2063616c6c206e6f74207375636365737366756c00000000600082015250565b7f1901000000000000000000000000000000000000000000000000000000000000600082015250565b7f4e61746976654d6574615472616e73616374696f6e3a20494e56414c49445f5360008201527f49474e4552000000000000000000000000000000000000000000000000000000602082015250565b7f5369676e657220616e64207369676e617475726520646f206e6f74206d61746360008201527f6800000000000000000000000000000000000000000000000000000000000000602082015250565b610e9c81610c21565b8114610ea757600080fd5b50565b610eb381610c45565b8114610ebe57600080fd5b50565b610eca81610c79565b8114610ed557600080fd5b5056fe4d6574615472616e73616374696f6e2875696e74323536206e6f6e63652c616464726573732066726f6d2c62797465732066756e6374696f6e5369676e617475726529a264697066735822122051dddc7b448cc04c0784b27b18460aaecdf8db8b98475ee800fcc2d63037687164736f6c63430008040033",
  "immutableReferences": {},
  "source": "// SPDX-License-Identifier: MIT\n\npragma solidity ^0.8.0;\n\nimport {SafeMath} from  \"@openzeppelin/contracts/utils/math/SafeMath.sol\";\nimport {EIP712Base} from \"./EIP712Base.sol\";\n\ncontract NativeMetaTransaction is EIP712Base {\n    using SafeMath for uint256;\n    bytes32 private constant META_TRANSACTION_TYPEHASH = keccak256(\n        bytes(\n            \"MetaTransaction(uint256 nonce,address from,bytes functionSignature)\"\n        )\n    );\n    event MetaTransactionExecuted(\n        address userAddress,\n        address payable relayerAddress,\n        bytes functionSignature\n    );\n    mapping(address => uint256) nonces;\n\n    /*\n     * Meta transaction structure.\n     * No point of including value field here as if user is doing value transfer then he has the funds to pay for gas\n     * He should call the desired function directly in that case.\n     */\n    struct MetaTransaction {\n        uint256 nonce;\n        address from;\n        bytes functionSignature;\n    }\n\n    function executeMetaTransaction(\n        address userAddress,\n        bytes memory functionSignature,\n        bytes32 sigR,\n        bytes32 sigS,\n        uint8 sigV\n    ) public payable returns (bytes memory) {\n        MetaTransaction memory metaTx = MetaTransaction({\n            nonce: nonces[userAddress],\n            from: userAddress,\n            functionSignature: functionSignature\n        });\n\n        require(\n            verify(userAddress, metaTx, sigR, sigS, sigV),\n            \"Signer and signature do not match\"\n        );\n\n        // increase nonce for user (to avoid re-use)\n        nonces[userAddress] = nonces[userAddress].add(1);\n\n        emit MetaTransactionExecuted(\n            userAddress,\n            payable(msg.sender),\n            functionSignature\n        );\n\n        // Append userAddress and relayer address at the end to extract it from calling context\n        (bool success, bytes memory returnData) = address(this).call(\n            abi.encodePacked(functionSignature, userAddress)\n        );\n        require(success, \"Function call not successful\");\n\n        return returnData;\n    }\n\n    function hashMetaTransaction(MetaTransaction memory metaTx)\n        internal\n        pure\n        returns (bytes32)\n    {\n        return\n            keccak256(\n                abi.encode(\n                    META_TRANSACTION_TYPEHASH,\n                    metaTx.nonce,\n                    metaTx.from,\n                    keccak256(metaTx.functionSignature)\n                )\n            );\n    }\n\n    function getNonce(address user) public view returns (uint256 nonce) {\n        nonce = nonces[user];\n    }\n\n    function verify(\n        address signer,\n        MetaTransaction memory metaTx,\n        bytes32 sigR,\n        bytes32 sigS,\n        uint8 sigV\n    ) internal view returns (bool) {\n        require(signer != address(0), \"NativeMetaTransaction: INVALID_SIGNER\");\n        return\n            signer ==\n            ecrecover(\n                toTypedMessageHash(hashMetaTransaction(metaTx)),\n                sigV,\n                sigR,\n                sigS\n            );\n    }\n}",
  "sourcePath": "/workspace/contracts/common/meta-transactions/NativeMetaTransaction.sol",
  "compiler": {
    "name": "solc",
    "version": "0.8.4+commit.c7e474f2.Emscripten.clang"
  },
  "schemaVersion": "3.4.0",
  "updatedAt": "2023-08-07T06:07:18.166Z",
  "devdoc": {
    "kind": "dev",
    "methods": {},
    "version": 1
  },
  "userdoc": {
    "kind": "user",
    "methods": {},
    "version": 1
  }
}